{
    "_format": "hh-sol-artifact-1",
    "contractName": "RoboPunksNFT",
    "sourceName": "contracts/RoboPunksNFT.sol",
    "abi": [
        {
            "inputs": [],
            "stateMutability": "payable",
            "type": "constructor"
        },
        {
            "anonymous": false,
            "inputs": [
                {
                    "indexed": true,
                    "internalType": "address",
                    "name": "owner",
                    "type": "address"
                },
                {
                    "indexed": true,
                    "internalType": "address",
                    "name": "approved",
                    "type": "address"
                },
                {
                    "indexed": true,
                    "internalType": "uint256",
                    "name": "tokenId",
                    "type": "uint256"
                }
            ],
            "name": "Approval",
            "type": "event"
        },
        {
            "anonymous": false,
            "inputs": [
                {
                    "indexed": true,
                    "internalType": "address",
                    "name": "owner",
                    "type": "address"
                },
                {
                    "indexed": true,
                    "internalType": "address",
                    "name": "operator",
                    "type": "address"
                },
                {
                    "indexed": false,
                    "internalType": "bool",
                    "name": "approved",
                    "type": "bool"
                }
            ],
            "name": "ApprovalForAll",
            "type": "event"
        },
        {
            "anonymous": false,
            "inputs": [
                {
                    "indexed": true,
                    "internalType": "address",
                    "name": "previousOwner",
                    "type": "address"
                },
                {
                    "indexed": true,
                    "internalType": "address",
                    "name": "newOwner",
                    "type": "address"
                }
            ],
            "name": "OwnershipTransferred",
            "type": "event"
        },
        {
            "anonymous": false,
            "inputs": [
                {
                    "indexed": true,
                    "internalType": "address",
                    "name": "from",
                    "type": "address"
                },
                {
                    "indexed": true,
                    "internalType": "address",
                    "name": "to",
                    "type": "address"
                },
                {
                    "indexed": true,
                    "internalType": "uint256",
                    "name": "tokenId",
                    "type": "uint256"
                }
            ],
            "name": "Transfer",
            "type": "event"
        },
        {
            "inputs": [
                {
                    "internalType": "address",
                    "name": "to",
                    "type": "address"
                },
                {
                    "internalType": "uint256",
                    "name": "tokenId",
                    "type": "uint256"
                }
            ],
            "name": "approve",
            "outputs": [],
            "stateMutability": "nonpayable",
            "type": "function"
        },
        {
            "inputs": [
                {
                    "internalType": "address",
                    "name": "owner",
                    "type": "address"
                }
            ],
            "name": "balanceOf",
            "outputs": [
                {
                    "internalType": "uint256",
                    "name": "",
                    "type": "uint256"
                }
            ],
            "stateMutability": "view",
            "type": "function"
        },
        {
            "inputs": [
                {
                    "internalType": "uint256",
                    "name": "tokenId",
                    "type": "uint256"
                }
            ],
            "name": "getApproved",
            "outputs": [
                {
                    "internalType": "address",
                    "name": "",
                    "type": "address"
                }
            ],
            "stateMutability": "view",
            "type": "function"
        },
        {
            "inputs": [
                {
                    "internalType": "address",
                    "name": "owner",
                    "type": "address"
                },
                {
                    "internalType": "address",
                    "name": "operator",
                    "type": "address"
                }
            ],
            "name": "isApprovedForAll",
            "outputs": [
                {
                    "internalType": "bool",
                    "name": "",
                    "type": "bool"
                }
            ],
            "stateMutability": "view",
            "type": "function"
        },
        {
            "inputs": [],
            "name": "isPublicMintEnabled",
            "outputs": [
                {
                    "internalType": "bool",
                    "name": "",
                    "type": "bool"
                }
            ],
            "stateMutability": "view",
            "type": "function"
        },
        {
            "inputs": [],
            "name": "maxPerWallet",
            "outputs": [
                {
                    "internalType": "uint256",
                    "name": "",
                    "type": "uint256"
                }
            ],
            "stateMutability": "view",
            "type": "function"
        },
        {
            "inputs": [],
            "name": "maxSupply",
            "outputs": [
                {
                    "internalType": "uint256",
                    "name": "",
                    "type": "uint256"
                }
            ],
            "stateMutability": "view",
            "type": "function"
        },
        {
            "inputs": [
                {
                    "internalType": "uint256",
                    "name": "_quantity",
                    "type": "uint256"
                }
            ],
            "name": "mint",
            "outputs": [],
            "stateMutability": "payable",
            "type": "function"
        },
        {
            "inputs": [],
            "name": "mintPrice",
            "outputs": [
                {
                    "internalType": "uint256",
                    "name": "",
                    "type": "uint256"
                }
            ],
            "stateMutability": "view",
            "type": "function"
        },
        {
            "inputs": [],
            "name": "name",
            "outputs": [
                {
                    "internalType": "string",
                    "name": "",
                    "type": "string"
                }
            ],
            "stateMutability": "view",
            "type": "function"
        },
        {
            "inputs": [],
            "name": "owner",
            "outputs": [
                {
                    "internalType": "address",
                    "name": "",
                    "type": "address"
                }
            ],
            "stateMutability": "view",
            "type": "function"
        },
        {
            "inputs": [
                {
                    "internalType": "uint256",
                    "name": "tokenId",
                    "type": "uint256"
                }
            ],
            "name": "ownerOf",
            "outputs": [
                {
                    "internalType": "address",
                    "name": "",
                    "type": "address"
                }
            ],
            "stateMutability": "view",
            "type": "function"
        },
        {
            "inputs": [],
            "name": "renounceOwnership",
            "outputs": [],
            "stateMutability": "nonpayable",
            "type": "function"
        },
        {
            "inputs": [
                {
                    "internalType": "address",
                    "name": "from",
                    "type": "address"
                },
                {
                    "internalType": "address",
                    "name": "to",
                    "type": "address"
                },
                {
                    "internalType": "uint256",
                    "name": "tokenId",
                    "type": "uint256"
                }
            ],
            "name": "safeTransferFrom",
            "outputs": [],
            "stateMutability": "nonpayable",
            "type": "function"
        },
        {
            "inputs": [
                {
                    "internalType": "address",
                    "name": "from",
                    "type": "address"
                },
                {
                    "internalType": "address",
                    "name": "to",
                    "type": "address"
                },
                {
                    "internalType": "uint256",
                    "name": "tokenId",
                    "type": "uint256"
                },
                {
                    "internalType": "bytes",
                    "name": "_data",
                    "type": "bytes"
                }
            ],
            "name": "safeTransferFrom",
            "outputs": [],
            "stateMutability": "nonpayable",
            "type": "function"
        },
        {
            "inputs": [
                {
                    "internalType": "address",
                    "name": "operator",
                    "type": "address"
                },
                {
                    "internalType": "bool",
                    "name": "approved",
                    "type": "bool"
                }
            ],
            "name": "setApprovalForAll",
            "outputs": [],
            "stateMutability": "nonpayable",
            "type": "function"
        },
        {
            "inputs": [
                {
                    "internalType": "string",
                    "name": "_baseTokenUri",
                    "type": "string"
                }
            ],
            "name": "setBaseTokenUri",
            "outputs": [],
            "stateMutability": "nonpayable",
            "type": "function"
        },
        {
            "inputs": [
                {
                    "internalType": "bool",
                    "name": "_isPublicMintEnabled",
                    "type": "bool"
                }
            ],
            "name": "setIsPublicMintEnabled",
            "outputs": [],
            "stateMutability": "nonpayable",
            "type": "function"
        },
        {
            "inputs": [
                {
                    "internalType": "bytes4",
                    "name": "interfaceId",
                    "type": "bytes4"
                }
            ],
            "name": "supportsInterface",
            "outputs": [
                {
                    "internalType": "bool",
                    "name": "",
                    "type": "bool"
                }
            ],
            "stateMutability": "view",
            "type": "function"
        },
        {
            "inputs": [],
            "name": "symbol",
            "outputs": [
                {
                    "internalType": "string",
                    "name": "",
                    "type": "string"
                }
            ],
            "stateMutability": "view",
            "type": "function"
        },
        {
            "inputs": [
                {
                    "internalType": "uint256",
                    "name": "tokenId",
                    "type": "uint256"
                }
            ],
            "name": "tokenURI",
            "outputs": [
                {
                    "internalType": "string",
                    "name": "",
                    "type": "string"
                }
            ],
            "stateMutability": "view",
            "type": "function"
        },
        {
            "inputs": [
                {
                    "internalType": "uint256",
                    "name": "_tokenId",
                    "type": "uint256"
                }
            ],
            "name": "tokenUri",
            "outputs": [
                {
                    "internalType": "string",
                    "name": "",
                    "type": "string"
                }
            ],
            "stateMutability": "view",
            "type": "function"
        },
        {
            "inputs": [],
            "name": "totalSupply",
            "outputs": [
                {
                    "internalType": "uint256",
                    "name": "",
                    "type": "uint256"
                }
            ],
            "stateMutability": "view",
            "type": "function"
        },
        {
            "inputs": [
                {
                    "internalType": "address",
                    "name": "from",
                    "type": "address"
                },
                {
                    "internalType": "address",
                    "name": "to",
                    "type": "address"
                },
                {
                    "internalType": "uint256",
                    "name": "tokenId",
                    "type": "uint256"
                }
            ],
            "name": "transferFrom",
            "outputs": [],
            "stateMutability": "nonpayable",
            "type": "function"
        },
        {
            "inputs": [
                {
                    "internalType": "address",
                    "name": "newOwner",
                    "type": "address"
                }
            ],
            "name": "transferOwnership",
            "outputs": [],
            "stateMutability": "nonpayable",
            "type": "function"
        },
        {
            "inputs": [
                {
                    "internalType": "address",
                    "name": "",
                    "type": "address"
                }
            ],
            "name": "walletMints",
            "outputs": [
                {
                    "internalType": "uint256",
                    "name": "",
                    "type": "uint256"
                }
            ],
            "stateMutability": "view",
            "type": "function"
        },
        {
            "inputs": [],
            "name": "withdraw",
            "outputs": [],
            "stateMutability": "nonpayable",
            "type": "function"
        },
        {
            "inputs": [],
            "name": "withdrawWallet",
            "outputs": [
                {
                    "internalType": "address payable",
                    "name": "",
                    "type": "address"
                }
            ],
            "stateMutability": "view",
            "type": "function"
        }
    ],
    "bytecode": "0x60806040526040518060400160405280600981526020017f526f626f50756e6b7300000000000000000000000000000000000000000000008152506040518060400160405280600281526020017f5250000000000000000000000000000000000000000000000000000000000000815250816000908051906020019062000088929190620001bf565b508060019080519060200190620000a1929190620001bf565b505050620000c4620000b8620000f160201b60201c565b620000f960201b60201c565b66470de4df82000060078190555060006008819055506127106009819055506014600a81905550620002d4565b600033905090565b6000600660009054906101000a900473ffffffffffffffffffffffffffffffffffffffff16905081600660006101000a81548173ffffffffffffffffffffffffffffffffffffffff021916908373ffffffffffffffffffffffffffffffffffffffff1602179055508173ffffffffffffffffffffffffffffffffffffffff168173ffffffffffffffffffffffffffffffffffffffff167f8be0079c531659141344cd1fd0a4f28419497f9722a3daafe3b4186f6b6457e060405160405180910390a35050565b828054620001cd906200026f565b90600052602060002090601f016020900481019282620001f157600085556200023d565b82601f106200020c57805160ff19168380011785556200023d565b828001600101855582156200023d579182015b828111156200023c5782518255916020019190600101906200021f565b5b5090506200024c919062000250565b5090565b5b808211156200026b57600081600090555060010162000251565b5090565b600060028204905060018216806200028857607f821691505b602082108114156200029f576200029e620002a5565b5b50919050565b7f4e487b7100000000000000000000000000000000000000000000000000000000600052602260045260246000fd5b61395f80620002e46000396000f3fe6080604052600436106101b75760003560e01c806370a08231116100ec578063a22cb4651161008a578063d5abeb0111610064578063d5abeb01146105eb578063e985e9c514610616578063f0293fd314610653578063f2fde38b14610690576101b7565b8063a22cb4651461055c578063b88d4fde14610585578063c87b56dd146105ae576101b7565b80638da5cb5b116100c65780638da5cb5b146104c157806395652cfa146104ec57806395d89b4114610515578063a0712d6814610540576101b7565b806370a0823114610442578063715018a61461047f57806385d178f414610496576101b7565b80632373ac221161015957806342842e0e1161013357806342842e0e14610386578063453c2310146103af5780636352211e146103da5780636817c76c14610417576101b7565b80632373ac221461031d57806323b872dd146103465780633ccfd60b1461036f576101b7565b8063081812fc11610195578063081812fc1461024f578063095ea7b31461028c5780631675f455146102b557806318160ddd146102f2576101b7565b80630116bc2d146101bc57806301ffc9a7146101e757806306fdde0314610224575b600080fd5b3480156101c857600080fd5b506101d16106b9565b6040516101de9190612bfb565b60405180910390f35b3480156101f357600080fd5b5061020e600480360381019061020991906125ab565b6106cc565b60405161021b9190612bfb565b60405180910390f35b34801561023057600080fd5b506102396107ae565b6040516102469190612c16565b60405180910390f35b34801561025b57600080fd5b5061027660048036038101906102719190612642565b610840565b6040516102839190612b79565b60405180910390f35b34801561029857600080fd5b506102b360048036038101906102ae9190612546565b6108c5565b005b3480156102c157600080fd5b506102dc60048036038101906102d79190612642565b6109dd565b6040516102e99190612c16565b60405180910390f35b3480156102fe57600080fd5b50610307610a59565b6040516103149190612ef8565b60405180910390f35b34801561032957600080fd5b50610344600480360381019061033f9190612582565b610a5f565b005b34801561035257600080fd5b5061036d60048036038101906103689190612440565b610af8565b005b34801561037b57600080fd5b50610384610b58565b005b34801561039257600080fd5b506103ad60048036038101906103a89190612440565b610ca5565b005b3480156103bb57600080fd5b506103c4610cc5565b6040516103d19190612ef8565b60405180910390f35b3480156103e657600080fd5b5061040160048036038101906103fc9190612642565b610ccb565b60405161040e9190612b79565b60405180910390f35b34801561042357600080fd5b5061042c610d7d565b6040516104399190612ef8565b60405180910390f35b34801561044e57600080fd5b50610469600480360381019061046491906123db565b610d83565b6040516104769190612ef8565b60405180910390f35b34801561048b57600080fd5b50610494610e3b565b005b3480156104a257600080fd5b506104ab610ec3565b6040516104b89190612b94565b60405180910390f35b3480156104cd57600080fd5b506104d6610ee9565b6040516104e39190612b79565b60405180910390f35b3480156104f857600080fd5b50610513600480360381019061050e91906125fd565b610f13565b005b34801561052157600080fd5b5061052a610fa5565b6040516105379190612c16565b60405180910390f35b61055a60048036038101906105559190612642565b611037565b005b34801561056857600080fd5b50610583600480360381019061057e919061250a565b61120e565b005b34801561059157600080fd5b506105ac60048036038101906105a7919061248f565b611224565b005b3480156105ba57600080fd5b506105d560048036038101906105d09190612642565b611286565b6040516105e29190612c16565b60405180910390f35b3480156105f757600080fd5b5061060061132d565b60405161060d9190612ef8565b60405180910390f35b34801561062257600080fd5b5061063d60048036038101906106389190612404565b611333565b60405161064a9190612bfb565b60405180910390f35b34801561065f57600080fd5b5061067a600480360381019061067591906123db565b6113c7565b6040516106879190612ef8565b60405180910390f35b34801561069c57600080fd5b506106b760048036038101906106b291906123db565b6113df565b005b600b60009054906101000a900460ff1681565b60007f80ac58cd000000000000000000000000000000000000000000000000000000007bffffffffffffffffffffffffffffffffffffffffffffffffffffffff1916827bffffffffffffffffffffffffffffffffffffffffffffffffffffffff1916148061079757507f5b5e139f000000000000000000000000000000000000000000000000000000007bffffffffffffffffffffffffffffffffffffffffffffffffffffffff1916827bffffffffffffffffffffffffffffffffffffffffffffffffffffffff1916145b806107a757506107a6826114d7565b5b9050919050565b6060600080546107bd906131a9565b80601f01602080910402602001604051908101604052809291908181526020018280546107e9906131a9565b80156108365780601f1061080b57610100808354040283529160200191610836565b820191906000526020600020905b81548152906001019060200180831161081957829003601f168201915b5050505050905090565b600061084b82611541565b61088a576040517f08c379a000000000000000000000000000000000000000000000000000000000815260040161088190612e18565b60405180910390fd5b6004600083815260200190815260200160002060009054906101000a900473ffffffffffffffffffffffffffffffffffffffff169050919050565b60006108d082610ccb565b90508073ffffffffffffffffffffffffffffffffffffffff168373ffffffffffffffffffffffffffffffffffffffff161415610941576040517f08c379a000000000000000000000000000000000000000000000000000000000815260040161093890612e98565b60405180910390fd5b8073ffffffffffffffffffffffffffffffffffffffff166109606115ad565b73ffffffffffffffffffffffffffffffffffffffff16148061098f575061098e816109896115ad565b611333565b5b6109ce576040517f08c379a00000000000000000000000000000000000000000000000000000000081526004016109c590612d98565b60405180910390fd5b6109d883836115b5565b505050565b60606109e882611541565b610a27576040517f08c379a0000000000000000000000000000000000000000000000000000000008152600401610a1e90612ed8565b60405180910390fd5b600c610a328361166e565b604051602001610a43929190612b35565b6040516020818303038152906040529050919050565b60085481565b610a676115ad565b73ffffffffffffffffffffffffffffffffffffffff16610a85610ee9565b73ffffffffffffffffffffffffffffffffffffffff1614610adb576040517f08c379a0000000000000000000000000000000000000000000000000000000008152600401610ad290612e58565b60405180910390fd5b80600b60006101000a81548160ff02191690831515021790555050565b610b09610b036115ad565b8261181b565b610b48576040517f08c379a0000000000000000000000000000000000000000000000000000000008152600401610b3f90612eb8565b60405180910390fd5b610b538383836118f9565b505050565b610b606115ad565b73ffffffffffffffffffffffffffffffffffffffff16610b7e610ee9565b73ffffffffffffffffffffffffffffffffffffffff1614610bd4576040517f08c379a0000000000000000000000000000000000000000000000000000000008152600401610bcb90612e58565b60405180910390fd5b6000600d60009054906101000a900473ffffffffffffffffffffffffffffffffffffffff1673ffffffffffffffffffffffffffffffffffffffff1647604051610c1c90612b64565b60006040518083038185875af1925050503d8060008114610c59576040519150601f19603f3d011682016040523d82523d6000602084013e610c5e565b606091505b5050905080610ca2576040517f08c379a0000000000000000000000000000000000000000000000000000000008152600401610c9990612cf8565b60405180910390fd5b50565b610cc083838360405180602001604052806000815250611224565b505050565b600a5481565b6000806002600084815260200190815260200160002060009054906101000a900473ffffffffffffffffffffffffffffffffffffffff169050600073ffffffffffffffffffffffffffffffffffffffff168173ffffffffffffffffffffffffffffffffffffffff161415610d74576040517f08c379a0000000000000000000000000000000000000000000000000000000008152600401610d6b90612dd8565b60405180910390fd5b80915050919050565b60075481565b60008073ffffffffffffffffffffffffffffffffffffffff168273ffffffffffffffffffffffffffffffffffffffff161415610df4576040517f08c379a0000000000000000000000000000000000000000000000000000000008152600401610deb90612db8565b60405180910390fd5b600360008373ffffffffffffffffffffffffffffffffffffffff1673ffffffffffffffffffffffffffffffffffffffff168152602001908152602001600020549050919050565b610e436115ad565b73ffffffffffffffffffffffffffffffffffffffff16610e61610ee9565b73ffffffffffffffffffffffffffffffffffffffff1614610eb7576040517f08c379a0000000000000000000000000000000000000000000000000000000008152600401610eae90612e58565b60405180910390fd5b610ec16000611b60565b565b600d60009054906101000a900473ffffffffffffffffffffffffffffffffffffffff1681565b6000600660009054906101000a900473ffffffffffffffffffffffffffffffffffffffff16905090565b610f1b6115ad565b73ffffffffffffffffffffffffffffffffffffffff16610f39610ee9565b73ffffffffffffffffffffffffffffffffffffffff1614610f8f576040517f08c379a0000000000000000000000000000000000000000000000000000000008152600401610f8690612e58565b60405180910390fd5b8181600c9190610fa092919061221d565b505050565b606060018054610fb4906131a9565b80601f0160208091040260200160405190810160405280929190818152602001828054610fe0906131a9565b801561102d5780601f106110025761010080835404028352916020019161102d565b820191906000526020600020905b81548152906001019060200180831161101057829003601f168201915b5050505050905090565b600b60009054906101000a900460ff16611086576040517f08c379a000000000000000000000000000000000000000000000000000000000815260040161107d90612c78565b60405180910390fd5b600754816110949190613053565b34146110d5576040517f08c379a00000000000000000000000000000000000000000000000000000000081526004016110cc90612c38565b60405180910390fd5b600954816008546110e69190612fcc565b1115611127576040517f08c379a000000000000000000000000000000000000000000000000000000000815260040161111e90612d78565b60405180910390fd5b600a5481600e60003373ffffffffffffffffffffffffffffffffffffffff1673ffffffffffffffffffffffffffffffffffffffff168152602001908152602001600020546111759190612fcc565b11156111b6576040517f08c379a00000000000000000000000000000000000000000000000000000000081526004016111ad90612e38565b60405180910390fd5b60005b8181101561120a57600060016008546111d29190612fcc565b9050600860008154809291906111e79061320c565b91905055506111f63382611c26565b5080806112029061320c565b9150506111b9565b5050565b6112206112196115ad565b8383611c44565b5050565b61123561122f6115ad565b8361181b565b611274576040517f08c379a000000000000000000000000000000000000000000000000000000000815260040161126b90612eb8565b60405180910390fd5b61128084848484611db1565b50505050565b606061129182611541565b6112d0576040517f08c379a00000000000000000000000000000000000000000000000000000000081526004016112c790612e78565b60405180910390fd5b60006112da611e0d565b905060008151116112fa5760405180602001604052806000815250611325565b806113048461166e565b604051602001611315929190612b11565b6040516020818303038152906040525b915050919050565b60095481565b6000600560008473ffffffffffffffffffffffffffffffffffffffff1673ffffffffffffffffffffffffffffffffffffffff16815260200190815260200160002060008373ffffffffffffffffffffffffffffffffffffffff1673ffffffffffffffffffffffffffffffffffffffff16815260200190815260200160002060009054906101000a900460ff16905092915050565b600e6020528060005260406000206000915090505481565b6113e76115ad565b73ffffffffffffffffffffffffffffffffffffffff16611405610ee9565b73ffffffffffffffffffffffffffffffffffffffff161461145b576040517f08c379a000000000000000000000000000000000000000000000000000000000815260040161145290612e58565b60405180910390fd5b600073ffffffffffffffffffffffffffffffffffffffff168173ffffffffffffffffffffffffffffffffffffffff1614156114cb576040517f08c379a00000000000000000000000000000000000000000000000000000000081526004016114c290612c98565b60405180910390fd5b6114d481611b60565b50565b60007f01ffc9a7000000000000000000000000000000000000000000000000000000007bffffffffffffffffffffffffffffffffffffffffffffffffffffffff1916827bffffffffffffffffffffffffffffffffffffffffffffffffffffffff1916149050919050565b60008073ffffffffffffffffffffffffffffffffffffffff166002600084815260200190815260200160002060009054906101000a900473ffffffffffffffffffffffffffffffffffffffff1673ffffffffffffffffffffffffffffffffffffffff1614159050919050565b600033905090565b816004600083815260200190815260200160002060006101000a81548173ffffffffffffffffffffffffffffffffffffffff021916908373ffffffffffffffffffffffffffffffffffffffff160217905550808273ffffffffffffffffffffffffffffffffffffffff1661162883610ccb565b73ffffffffffffffffffffffffffffffffffffffff167f8c5be1e5ebec7d5bd14f71427d1e84f3dd0314c0f7b2291e5b200ac8c7c3b92560405160405180910390a45050565b606060008214156116b6576040518060400160405280600181526020017f30000000000000000000000000000000000000000000000000000000000000008152509050611816565b600082905060005b600082146116e85780806116d19061320c565b915050600a826116e19190613022565b91506116be565b60008167ffffffffffffffff81111561172a577f4e487b7100000000000000000000000000000000000000000000000000000000600052604160045260246000fd5b6040519080825280601f01601f19166020018201604052801561175c5781602001600182028036833780820191505090505b5090505b6000851461180f5760018261177591906130ad565b9150600a856117849190613255565b60306117909190612fcc565b60f81b8183815181106117cc577f4e487b7100000000000000000000000000000000000000000000000000000000600052603260045260246000fd5b60200101907effffffffffffffffffffffffffffffffffffffffffffffffffffffffffffff1916908160001a905350600a856118089190613022565b9450611760565b8093505050505b919050565b600061182682611541565b611865576040517f08c379a000000000000000000000000000000000000000000000000000000000815260040161185c90612d58565b60405180910390fd5b600061187083610ccb565b90508073ffffffffffffffffffffffffffffffffffffffff168473ffffffffffffffffffffffffffffffffffffffff1614806118b257506118b18185611333565b5b806118f057508373ffffffffffffffffffffffffffffffffffffffff166118d884610840565b73ffffffffffffffffffffffffffffffffffffffff16145b91505092915050565b8273ffffffffffffffffffffffffffffffffffffffff1661191982610ccb565b73ffffffffffffffffffffffffffffffffffffffff161461196f576040517f08c379a000000000000000000000000000000000000000000000000000000000815260040161196690612cb8565b60405180910390fd5b600073ffffffffffffffffffffffffffffffffffffffff168273ffffffffffffffffffffffffffffffffffffffff1614156119df576040517f08c379a00000000000000000000000000000000000000000000000000000000081526004016119d690612d18565b60405180910390fd5b6119ea838383611e24565b6119f56000826115b5565b6001600360008573ffffffffffffffffffffffffffffffffffffffff1673ffffffffffffffffffffffffffffffffffffffff1681526020019081526020016000206000828254611a4591906130ad565b925050819055506001600360008473ffffffffffffffffffffffffffffffffffffffff1673ffffffffffffffffffffffffffffffffffffffff1681526020019081526020016000206000828254611a9c9190612fcc565b92505081905550816002600083815260200190815260200160002060006101000a81548173ffffffffffffffffffffffffffffffffffffffff021916908373ffffffffffffffffffffffffffffffffffffffff160217905550808273ffffffffffffffffffffffffffffffffffffffff168473ffffffffffffffffffffffffffffffffffffffff167fddf252ad1be2c89b69c2b068fc378daa952ba7f163c4a11628f55a4df523b3ef60405160405180910390a4611b5b838383611e29565b505050565b6000600660009054906101000a900473ffffffffffffffffffffffffffffffffffffffff16905081600660006101000a81548173ffffffffffffffffffffffffffffffffffffffff021916908373ffffffffffffffffffffffffffffffffffffffff1602179055508173ffffffffffffffffffffffffffffffffffffffff168173ffffffffffffffffffffffffffffffffffffffff167f8be0079c531659141344cd1fd0a4f28419497f9722a3daafe3b4186f6b6457e060405160405180910390a35050565b611c40828260405180602001604052806000815250611e2e565b5050565b8173ffffffffffffffffffffffffffffffffffffffff168373ffffffffffffffffffffffffffffffffffffffff161415611cb3576040517f08c379a0000000000000000000000000000000000000000000000000000000008152600401611caa90612d38565b60405180910390fd5b80600560008573ffffffffffffffffffffffffffffffffffffffff1673ffffffffffffffffffffffffffffffffffffffff16815260200190815260200160002060008473ffffffffffffffffffffffffffffffffffffffff1673ffffffffffffffffffffffffffffffffffffffff16815260200190815260200160002060006101000a81548160ff0219169083151502179055508173ffffffffffffffffffffffffffffffffffffffff168373ffffffffffffffffffffffffffffffffffffffff167f17307eab39ab6107e8899845ad3d59bd9653f200f220920489ca2b5937696c3183604051611da49190612bfb565b60405180910390a3505050565b611dbc8484846118f9565b611dc884848484611e89565b611e07576040517f08c379a0000000000000000000000000000000000000000000000000000000008152600401611dfe90612c58565b60405180910390fd5b50505050565b606060405180602001604052806000815250905090565b505050565b505050565b611e388383612020565b611e456000848484611e89565b611e84576040517f08c379a0000000000000000000000000000000000000000000000000000000008152600401611e7b90612c58565b60405180910390fd5b505050565b6000611eaa8473ffffffffffffffffffffffffffffffffffffffff166121fa565b15612013578373ffffffffffffffffffffffffffffffffffffffff1663150b7a02611ed36115ad565b8786866040518563ffffffff1660e01b8152600401611ef59493929190612baf565b602060405180830381600087803b158015611f0f57600080fd5b505af1925050508015611f4057506040513d601f19601f82011682018060405250810190611f3d91906125d4565b60015b611fc3573d8060008114611f70576040519150601f19603f3d011682016040523d82523d6000602084013e611f75565b606091505b50600081511415611fbb576040517f08c379a0000000000000000000000000000000000000000000000000000000008152600401611fb290612c58565b60405180910390fd5b805181602001fd5b63150b7a0260e01b7bffffffffffffffffffffffffffffffffffffffffffffffffffffffff1916817bffffffffffffffffffffffffffffffffffffffffffffffffffffffff191614915050612018565b600190505b949350505050565b600073ffffffffffffffffffffffffffffffffffffffff168273ffffffffffffffffffffffffffffffffffffffff161415612090576040517f08c379a000000000000000000000000000000000000000000000000000000000815260040161208790612df8565b60405180910390fd5b61209981611541565b156120d9576040517f08c379a00000000000000000000000000000000000000000000000000000000081526004016120d090612cd8565b60405180910390fd5b6120e560008383611e24565b6001600360008473ffffffffffffffffffffffffffffffffffffffff1673ffffffffffffffffffffffffffffffffffffffff16815260200190815260200160002060008282546121359190612fcc565b92505081905550816002600083815260200190815260200160002060006101000a81548173ffffffffffffffffffffffffffffffffffffffff021916908373ffffffffffffffffffffffffffffffffffffffff160217905550808273ffffffffffffffffffffffffffffffffffffffff16600073ffffffffffffffffffffffffffffffffffffffff167fddf252ad1be2c89b69c2b068fc378daa952ba7f163c4a11628f55a4df523b3ef60405160405180910390a46121f660008383611e29565b5050565b6000808273ffffffffffffffffffffffffffffffffffffffff163b119050919050565b828054612229906131a9565b90600052602060002090601f01602090048101928261224b5760008555612292565b82601f1061226457803560ff1916838001178555612292565b82800160010185558215612292579182015b82811115612291578235825591602001919060010190612276565b5b50905061229f91906122a3565b5090565b5b808211156122bc5760008160009055506001016122a4565b5090565b60006122d36122ce84612f38565b612f13565b9050828152602081018484840111156122eb57600080fd5b6122f6848285613167565b509392505050565b60008135905061230d816138cd565b92915050565b600081359050612322816138e4565b92915050565b600081359050612337816138fb565b92915050565b60008151905061234c816138fb565b92915050565b600082601f83011261236357600080fd5b81356123738482602086016122c0565b91505092915050565b60008083601f84011261238e57600080fd5b8235905067ffffffffffffffff8111156123a757600080fd5b6020830191508360018202830111156123bf57600080fd5b9250929050565b6000813590506123d581613912565b92915050565b6000602082840312156123ed57600080fd5b60006123fb848285016122fe565b91505092915050565b6000806040838503121561241757600080fd5b6000612425858286016122fe565b9250506020612436858286016122fe565b9150509250929050565b60008060006060848603121561245557600080fd5b6000612463868287016122fe565b9350506020612474868287016122fe565b9250506040612485868287016123c6565b9150509250925092565b600080600080608085870312156124a557600080fd5b60006124b3878288016122fe565b94505060206124c4878288016122fe565b93505060406124d5878288016123c6565b925050606085013567ffffffffffffffff8111156124f257600080fd5b6124fe87828801612352565b91505092959194509250565b6000806040838503121561251d57600080fd5b600061252b858286016122fe565b925050602061253c85828601612313565b9150509250929050565b6000806040838503121561255957600080fd5b6000612567858286016122fe565b9250506020612578858286016123c6565b9150509250929050565b60006020828403121561259457600080fd5b60006125a284828501612313565b91505092915050565b6000602082840312156125bd57600080fd5b60006125cb84828501612328565b91505092915050565b6000602082840312156125e657600080fd5b60006125f48482850161233d565b91505092915050565b6000806020838503121561261057600080fd5b600083013567ffffffffffffffff81111561262a57600080fd5b6126368582860161237c565b92509250509250929050565b60006020828403121561265457600080fd5b6000612662848285016123c6565b91505092915050565b612674816130f3565b82525050565b612683816130e1565b82525050565b61269281613105565b82525050565b60006126a382612f7e565b6126ad8185612f94565b93506126bd818560208601613176565b6126c681613342565b840191505092915050565b60006126dc82612f89565b6126e68185612fb0565b93506126f6818560208601613176565b6126ff81613342565b840191505092915050565b600061271582612f89565b61271f8185612fc1565b935061272f818560208601613176565b80840191505092915050565b60008154612748816131a9565b6127528186612fc1565b9450600182166000811461276d576001811461277e576127b1565b60ff198316865281860193506127b1565b61278785612f69565b60005b838110156127a95781548189015260018201915060208101905061278a565b838801955050505b50505092915050565b60006127c7601083612fb0565b91506127d282613353565b602082019050919050565b60006127ea603283612fb0565b91506127f58261337c565b604082019050919050565b600061280d601383612fb0565b9150612818826133cb565b602082019050919050565b6000612830602683612fb0565b915061283b826133f4565b604082019050919050565b6000612853602583612fb0565b915061285e82613443565b604082019050919050565b6000612876601c83612fb0565b915061288182613492565b602082019050919050565b6000612899600f83612fb0565b91506128a4826134bb565b602082019050919050565b60006128bc602483612fb0565b91506128c7826134e4565b604082019050919050565b60006128df601983612fb0565b91506128ea82613533565b602082019050919050565b6000612902602c83612fb0565b915061290d8261355c565b604082019050919050565b6000612925600883612fb0565b9150612930826135ab565b602082019050919050565b6000612948603883612fb0565b9150612953826135d4565b604082019050919050565b600061296b602a83612fb0565b915061297682613623565b604082019050919050565b600061298e602983612fb0565b915061299982613672565b604082019050919050565b60006129b1602083612fb0565b91506129bc826136c1565b602082019050919050565b60006129d4602c83612fb0565b91506129df826136ea565b604082019050919050565b60006129f7600583612fc1565b9150612a0282613739565b600582019050919050565b6000612a1a601183612fb0565b9150612a2582613762565b602082019050919050565b6000612a3d602083612fb0565b9150612a488261378b565b602082019050919050565b6000612a60602f83612fb0565b9150612a6b826137b4565b604082019050919050565b6000612a83602183612fb0565b9150612a8e82613803565b604082019050919050565b6000612aa6600083612fa5565b9150612ab182613852565b600082019050919050565b6000612ac9603183612fb0565b9150612ad482613855565b604082019050919050565b6000612aec601583612fb0565b9150612af7826138a4565b602082019050919050565b612b0b8161315d565b82525050565b6000612b1d828561270a565b9150612b29828461270a565b91508190509392505050565b6000612b41828561273b565b9150612b4d828461270a565b9150612b58826129ea565b91508190509392505050565b6000612b6f82612a99565b9150819050919050565b6000602082019050612b8e600083018461267a565b92915050565b6000602082019050612ba9600083018461266b565b92915050565b6000608082019050612bc4600083018761267a565b612bd1602083018661267a565b612bde6040830185612b02565b8181036060830152612bf08184612698565b905095945050505050565b6000602082019050612c106000830184612689565b92915050565b60006020820190508181036000830152612c3081846126d1565b905092915050565b60006020820190508181036000830152612c51816127ba565b9050919050565b60006020820190508181036000830152612c71816127dd565b9050919050565b60006020820190508181036000830152612c9181612800565b9050919050565b60006020820190508181036000830152612cb181612823565b9050919050565b60006020820190508181036000830152612cd181612846565b9050919050565b60006020820190508181036000830152612cf181612869565b9050919050565b60006020820190508181036000830152612d118161288c565b9050919050565b60006020820190508181036000830152612d31816128af565b9050919050565b60006020820190508181036000830152612d51816128d2565b9050919050565b60006020820190508181036000830152612d71816128f5565b9050919050565b60006020820190508181036000830152612d9181612918565b9050919050565b60006020820190508181036000830152612db18161293b565b9050919050565b60006020820190508181036000830152612dd18161295e565b9050919050565b60006020820190508181036000830152612df181612981565b9050919050565b60006020820190508181036000830152612e11816129a4565b9050919050565b60006020820190508181036000830152612e31816129c7565b9050919050565b60006020820190508181036000830152612e5181612a0d565b9050919050565b60006020820190508181036000830152612e7181612a30565b9050919050565b60006020820190508181036000830152612e9181612a53565b9050919050565b60006020820190508181036000830152612eb181612a76565b9050919050565b60006020820190508181036000830152612ed181612abc565b9050919050565b60006020820190508181036000830152612ef181612adf565b9050919050565b6000602082019050612f0d6000830184612b02565b92915050565b6000612f1d612f2e565b9050612f2982826131db565b919050565b6000604051905090565b600067ffffffffffffffff821115612f5357612f52613313565b5b612f5c82613342565b9050602081019050919050565b60008190508160005260206000209050919050565b600081519050919050565b600081519050919050565b600082825260208201905092915050565b600081905092915050565b600082825260208201905092915050565b600081905092915050565b6000612fd78261315d565b9150612fe28361315d565b9250827fffffffffffffffffffffffffffffffffffffffffffffffffffffffffffffffff0382111561301757613016613286565b5b828201905092915050565b600061302d8261315d565b91506130388361315d565b925082613048576130476132b5565b5b828204905092915050565b600061305e8261315d565b91506130698361315d565b9250817fffffffffffffffffffffffffffffffffffffffffffffffffffffffffffffffff04831182151516156130a2576130a1613286565b5b828202905092915050565b60006130b88261315d565b91506130c38361315d565b9250828210156130d6576130d5613286565b5b828203905092915050565b60006130ec8261313d565b9050919050565b60006130fe8261313d565b9050919050565b60008115159050919050565b60007fffffffff0000000000000000000000000000000000000000000000000000000082169050919050565b600073ffffffffffffffffffffffffffffffffffffffff82169050919050565b6000819050919050565b82818337600083830152505050565b60005b83811015613194578082015181840152602081019050613179565b838111156131a3576000848401525b50505050565b600060028204905060018216806131c157607f821691505b602082108114156131d5576131d46132e4565b5b50919050565b6131e482613342565b810181811067ffffffffffffffff8211171561320357613202613313565b5b80604052505050565b60006132178261315d565b91507fffffffffffffffffffffffffffffffffffffffffffffffffffffffffffffffff82141561324a57613249613286565b5b600182019050919050565b60006132608261315d565b915061326b8361315d565b92508261327b5761327a6132b5565b5b828206905092915050565b7f4e487b7100000000000000000000000000000000000000000000000000000000600052601160045260246000fd5b7f4e487b7100000000000000000000000000000000000000000000000000000000600052601260045260246000fd5b7f4e487b7100000000000000000000000000000000000000000000000000000000600052602260045260246000fd5b7f4e487b7100000000000000000000000000000000000000000000000000000000600052604160045260246000fd5b6000601f19601f8301169050919050565b7f77726f6e67206d696e742076616c756500000000000000000000000000000000600082015250565b7f4552433732313a207472616e7366657220746f206e6f6e20455243373231526560008201527f63656976657220696d706c656d656e7465720000000000000000000000000000602082015250565b7f6d696e74696e67206e6f7420656e61626c656400000000000000000000000000600082015250565b7f4f776e61626c653a206e6577206f776e657220697320746865207a65726f206160008201527f6464726573730000000000000000000000000000000000000000000000000000602082015250565b7f4552433732313a207472616e736665722066726f6d20696e636f72726563742060008201527f6f776e6572000000000000000000000000000000000000000000000000000000602082015250565b7f4552433732313a20746f6b656e20616c7265616479206d696e74656400000000600082015250565b7f5769746864726177206661696c65640000000000000000000000000000000000600082015250565b7f4552433732313a207472616e7366657220746f20746865207a65726f2061646460008201527f7265737300000000000000000000000000000000000000000000000000000000602082015250565b7f4552433732313a20617070726f766520746f2063616c6c657200000000000000600082015250565b7f4552433732313a206f70657261746f7220717565727920666f72206e6f6e657860008201527f697374656e7420746f6b656e0000000000000000000000000000000000000000602082015250565b7f736f6c64206f7574000000000000000000000000000000000000000000000000600082015250565b7f4552433732313a20617070726f76652063616c6c6572206973206e6f74206f7760008201527f6e6572206e6f7220617070726f76656420666f7220616c6c0000000000000000602082015250565b7f4552433732313a2062616c616e636520717565727920666f7220746865207a6560008201527f726f206164647265737300000000000000000000000000000000000000000000602082015250565b7f4552433732313a206f776e657220717565727920666f72206e6f6e657869737460008201527f656e7420746f6b656e0000000000000000000000000000000000000000000000602082015250565b7f4552433732313a206d696e7420746f20746865207a65726f2061646472657373600082015250565b7f4552433732313a20617070726f76656420717565727920666f72206e6f6e657860008201527f697374656e7420746f6b656e0000000000000000000000000000000000000000602082015250565b7f2e6a736f6e000000000000000000000000000000000000000000000000000000600082015250565b7f657863656564206d61782077616c6c6574000000000000000000000000000000600082015250565b7f4f776e61626c653a2063616c6c6572206973206e6f7420746865206f776e6572600082015250565b7f4552433732314d657461646174613a2055524920717565727920666f72206e6f60008201527f6e6578697374656e7420746f6b656e0000000000000000000000000000000000602082015250565b7f4552433732313a20617070726f76616c20746f2063757272656e74206f776e6560008201527f7200000000000000000000000000000000000000000000000000000000000000602082015250565b50565b7f4552433732313a207472616e736665722063616c6c6572206973206e6f74206f60008201527f776e6572206e6f7220617070726f766564000000000000000000000000000000602082015250565b7f546f6b656e20646f6573206e6f74206578697374210000000000000000000000600082015250565b6138d6816130e1565b81146138e157600080fd5b50565b6138ed81613105565b81146138f857600080fd5b50565b61390481613111565b811461390f57600080fd5b50565b61391b8161315d565b811461392657600080fd5b5056fea2646970667358221220b0ebdab3343aee11389f626b157a7736de4f0a26c25e29cd0385d4818665087a64736f6c63430008040033",
    "linkReferences": {},
    "deployedLinkReferences": {}
}